:100000000C9434000C9471000C9471000C947100E9
:100010000C9471000C9471000C9470080C94EB0219
:100020000C9471000C9471000C94EB030C94D704A5
:100030000C9471000C9471000C9471000C9471007C
:100040000C9471000C9471000C9498070C94C207E6
:100050000C9471000C9471000C9471000C9471005C
:100060000C9471000C947100209221028091200266
:10007000853A31F480911F028A3511F481E001C084
:10008000882780931E0288278093200280931F0276
:1000900011241FBECFEFD8E0DEBFCDBF14BE0FB618
:1000A000F894A89580916000886180936000109218
:1000B00060000FBE11E0A0E0B1E0E6EEFAE102C0A0
:1000C00005900D92AA30B107D9F722E0AAE0B1E07D
:1000D00001C01D92AE31B207E1F70E94B70C0C943B
:1000E0006B0D0C9400002D9808950E94CA040E9484
:1000F00045050E944E0581E00E942E050C94730078
:100100008F929F92AF92BF92CF92DF92EF92FF9227
:100110000F931F93CF93DF93CDB7DEB764970FB6DE
:10012000F894DEBF0FBECDBF0E942F03AB01BC0110
:100130002AE030E083E00E94F4050E944F037C0136
:100140000E942F030E94A30ACE0144960E943A08FF
:10015000811107C00E94810C882359F00E9475000C
:10016000FFCF0E942F03AB01BC018C890E9449097B
:10017000EBCF0E94CD0A882369F0CE0101960E9440
:10018000D00A882339F0CE0101960E94F30A81112A
:100190000E94F00ACE0143960E94FE0A882371F065
:1001A0000E945308182F0E94C70A082F0E94CA0AEB
:1001B000282F402F612F8B890E940C0BCE01429675
:1001C0000E94300B8823B1F080E00E94E6056C01AC
:1001D00081E00E94E6055C0182E00E94E6054C0198
:1001E00083E00E94E6058C019401A501B6018A898D
:1001F0000E943E0BCE0141960E946B0B8823B1F00A
:1002000080E00E946D066C0181E00E946D065C0139
:1002100082E00E946D064C0183E00E946D068C0115
:100220009401A501B60189890E94790BCE014096FF
:100230000E94A60B882371F00E94AA068C010E94DE
:10024000CC066C010E94D1069C01A601B8018889E8
:100250000E94B40BCE010F960E94DB0B882371F035
:100260000E942F030E9467078B016C010E945007B8
:10027000AB01BC0196018F850E94E90BCE010E9661
:100280000E94160C8823A9F083E00E948A078C0143
:1002900082E00E948A075C0181E00E948A076C016B
:1002A00080E00E948A07BC019501A6018E850E940C
:1002B000240CCE010D960E94510C882331F00E942F
:1002C0005608682F8D850E945F0CCE010C960E9407
:1002D000840C882331F00E945908682F8C850E9475
:1002E000920C0E944F038C010E191F09B80183E084
:1002F0000E94D6054AE050E0B80183E00E94F7066C
:1003000064960FB6F894DEBF0FBECDBFDF91CF91DC
:100310001F910F91FF90EF90DF90CF90BF90AF9023
:100320009F908F9008950F931F93CF93DF930E9418
:100330002F03AB01BC012EE130E082E00E94F40506
:100340000E944F03EC0180E00E94D60390931101BC
:100350008093100180910F01811118C00E94470401
:1003600080930F010E944F039C012C1B3D0BE90160
:10037000B90182E00E94D6054EE150E0BE0182E064
:10038000DF91CF911F910F910C94F7060E946D049D
:10039000882301F10E9470048C010E947D05029760
:1003A000B1F4C80164E770E00E94200D81E00437D9
:1003B000110508F480E00E948205882341F081E065
:1003C00090E00E94960582E090E00E94580510920D
:1003D0000F01C8CF0E947804FACFCF92DF92EF923C
:1003E000FF92CF93DF930E942F03AB01BC0121E06A
:1003F00030E080E00E94F4050E944F03EC010E946F
:100400002F036B017C010E947D05029799F5809175
:100410000A0190910B01A0910C01B0910D01A7016F
:100420009601281B390B4A0B5B0BDA01C9010597B2
:10043000A105B10550F0C0920A01D0920B01E092E3
:100440000C01F0920D010E949F040E944F037C0159
:10045000EC1AFD0AB70180E00E94D60541E050E0A9
:10046000B70180E0DF91CF91FF90EF90DF90CF90C8
:100470000C94F7060E94CA04C0920A01D0920B01A4
:10048000E0920C01F0920D01E0CFDF92EF92FF922B
:100490000F931F93CF93DF9300D000D000D0CDB740
:1004A000DEB70E942F03AB01BC012AE030E081E0FF
:1004B0000E94F4050E944F038D839E83D9B00E9451
:1004C0002F037B018C010E947D059C01039739F568
:1004D00010920E010E944E050E94450581E00E9487
:1004E0002E05B701C80128EE33E040E050E00E943D
:1004F000340D69837A838B839C8309811A810E94DE
:10050000AE05019709F060C006391105B8F0898180
:100510009A818C5291408639910580F032C0D2FE8A
:100520000FC081E080930E012230310501F50E9459
:100530004C050E943F0582E00E942E052D9A23C0A3
:1005400080910E01882381F310920E01C901019759
:10055000029750F781E090E00E9458050E947D05C7
:100560009C018230910519F3039709F4B3CF213030
:10057000310571F50E944E050E94450581E00E94FB
:100580002E050E9473000E944F03AC012D813E8115
:10059000421B530B5A834983BA0181E00E94D6055E
:1005A0004AE050E069817A8181E026960FB6F8949E
:1005B000DEBF0FBECDBFDF91CF911F910F91FF9096
:1005C000EF90DF900C94F706043F1140D0F6B6CFC1
:1005D0000E947500D8CF1F921FB61F9211248F93CF
:1005E0009F93AF93BF938091120190911301A091BB
:1005F0001401B09115010196A11DB11D8093120146
:1006000090931301A0931401B0931501BF91AF9182
:100610009F918F911F901FBE1F901895CF93DF93CE
:1006200010921201109213011092140110921501F0
:10063000C0EBD0E01882E1EBF0E01082A0E7B0E080
:100640001C921092B20089EF8093B30082E08883FD
:1006500087BB8C9384E08083DF91CF910895CF9303
:10066000DF9300D000D0CDB7DEB78FB7F8942091DC
:100670001201309113014091140150911501298309
:100680003A834B835C838FBF69817A818B819C81A4
:100690000F900F900F900F90DF91CF910895809160
:1006A0008400909185000895E6E1F1E011821082C6
:1006B0001282138214821582168217821086118686
:1006C00012863B9681E0E234F80781F70895CF93D4
:1006D000DF93FC01CA01DB01309751F10097A105BE
:1006E000B10531F1C6E1D1E030E020E04A854111A9
:1006F00019C04BE0429FE001439FD00D1124CA5E18
:10070000DE4FF983E8838A839B83AC83BD830E9499
:100710002F036E837F838887998781E08A87DF91A3
:10072000CF9108952F5F3F4F2B9624303105F1F67E
:1007300080E0F5CFCF92DF92EF92FF92CF93DF93DD
:100740000E942F036B017C01C6E1D1E08A858823DA
:10075000D1F08E819F81A885B985B701A601481B7C
:10076000590B6A0B7B0B8A819B81AC81BD81481739
:1007700059076A077B0738F0CE82DF82E886F98660
:10078000E881F98109952B9681E0C234D807F1F60A
:10079000DF91CF91FF90EF90DF90CF90089580E4AC
:1007A00080937C0087E880937A00089590917C0084
:1007B000907F8770982B90937C0080917A00806462
:1007C00080937A0080917A0086FDFCCF809178003A
:1007D0009091790008951F921FB61F9211242F93B4
:1007E0003F938F939F9380918600909187002091F3
:1007F00043012130A1F4909347018093460182E0A8
:1008000080934301809181008F7B809381009F9131
:100810008F913F912F911F901FBE1F90189520918F
:100820004301223079F42091460130914701821B27
:10083000930B909345018093440181E080934201A2
:100840001092430180916F008F7D80936F00DFCF06
:10085000579A5F982098289810928000E1E8F0E07D
:100860001082AFE6B0E08C918F7D8C9381E286BBE5
:1008700010924701109246011092450110924401D6
:10088000109243011092420182E4808308959FB741
:10089000F8948091430181111EC01092450110927D
:1008A00044011092420181E08093430182E48093ED
:1008B000810081E286BB80916F00806280936F002F
:1008C00081E09FBF882331F05F9A95E39A95F1F715
:1008D00000005F98089580E0F4CF80914201089570
:1008E0002FB7F89480914401909145012FBF08954E
:1008F0009FB7F894EFE6F0E080818F7D8083E1E898
:10090000F0E080818064808381E286BB10924301A5
:10091000109242019FBF5F98089521E030E0A90145
:1009200002C0440F551F8A95E2F7CA019BB16623A6
:1009300019F0892B8BB9089580958923FBCFCF932C
:10094000DF93D0914801C9E0D73028F4ED2FF0E0D3
:10095000EE5FFE4FC0816C2F617083E00E948D04BA
:100960006C2F627084E00E948D046C2F647085E0AF
:100970000E948D046C2F687086E00E948D04DF5FFA
:10098000D83028F4D0934801DF91CF910895109288
:100990004801FACF5B985C985D985E980895539AE9
:1009A000549A559A569A109248010C94CA041F9270
:1009B0001FB61F9211242F933F938F939F93809183
:1009C0004901811120C08091010180930001299A81
:1009D00081E080934901809100018230F1F080ED47
:1009E00097E02091880030918900820F931F9093A7
:1009F0008900809388009F918F913F912F911F9044
:100A00001FBE1F90189529981092490180910001EE
:100A1000823031F080E794E9E4CF80EA9FE0E1CFD3
:100A200080EA9CE8DECF219A299881E08093010139
:100A3000109249018093000180918400909185007B
:100A40008053984F909389008093880082E086BB02
:100A5000EFE6F0E080818260808308959FEF980F39
:100A6000923010F48093010108950895EFE6F0E0CC
:100A700080818D7F808329981092490108952A9A58
:100A80002C9808952A982C9A08952A982C980895BD
:100A9000229A249A0C9445052B9A08952B98089530
:100AA000239A0C944E0510924B0110924A0108951E
:100AB0009C0180914A0190914B018130910571F028
:100AC0008230910589F0892B71F4232B61F481E048
:100AD00090E090934B0180934A0105C082E090E042
:100AE00021303105B1F308952130310581F32230F1
:100AF0003105C9F783E090E0ECCF80914A019091F5
:100B00004B0108959B01882339F02150310981E080
:100B10002431310508F080E0089510924F011092C1
:100B20004E0110924D0110924C0108959C01892BA9
:100B3000A1F080914E0190914F018217930769F0C7
:100B400030934F0120934E0180914C0190914D01C3
:100B5000019690934D0180934C01089580914E0130
:100B600090914F01089580914C0190914D0108950D
:100B7000CF93DF93ECE6F1E08CE591E0C4E5D1E0C2
:100B800040E551E011921192DC011D921D921D92DF
:100B90001D92CD0119921992DA011D92AD01B1E0B9
:100BA000E437FB0779F7DF91CF910895843068F43B
:100BB000E82FF0E0EE0FFF1FE459FE4F8081918196
:100BC0008617970710F4718360830895843048F482
:100BD000E82FF0E0EE0FFF1FE459FE4F8081918176
:100BE000089590E080E008954F925F926F927F9217
:100BF0008F929F92AF92BF92CF92DF92EF92FF922D
:100C00000F931F936A017B01A9018430A0F490E047
:100C1000DC01A05BBE4F2C91FC01EE0FFF1FEE0F1D
:100C2000FF1F211117C0E45AFE4FC082D182E28219
:100C3000F38281E08C931F910F91FF90EF90DF90F2
:100C4000CF90BF90AF909F908F907F906F905F906C
:100C50004F900895DF01A45ABE4F8D909D90AD90A6
:100C6000BC9026013B01481859086A087B0870E0CF
:100C700060E0441655066606770630F1930182015E
:100C8000041B150B260B370BB901A80141155105A3
:100C900011E06107710520F04FEF5FEF60E070E059
:100CA000880F991FDC01AC5ABE4F8D919C91119712
:100CB0008417950710F44D935C93E45AFE4FC0825D
:100CC000D182E282F382B7CF4C195D096E097F09A8
:100CD000480D591D6A1D7B1DD9CF843048F4E82F7B
:100CE000F0E0EE0FFF1FEC5AFE4F808191810895D6
:100CF00090E080E00895E2E2F2E08DB79EB71092B6
:100D00007701109276011092750110927401EF3FF5
:100D1000F105F9F0F0F0811529E09207D0F4E81719
:100D2000F907B8F4825292408132910590F0809791
:100D3000909377018093760190937501809374016D
:100D400030E020E045EA41932F5F3F4F28173907F5
:100D5000D0F30895409176015091770190E080E0C2
:100D60004817590761F42091740130917501821779
:100D7000930768F080917401909175010895FC01CA
:100D8000EE5DFD4F2081253A71F70196E9CF9093F2
:100D9000750180937401EECF809176019091770177
:100DA000089580917601909177012091740130919E
:100DB0007501821B930B08956093800170938101EC
:100DC0008093820190938301109284011092850197
:100DD0001092860110928701E8E7F1E011821082FB
:100DE0001382128215821482178216820895CF927E
:100DF000DF92EF92FF92CF93DF9300D000D0CDB778
:100E0000DEB7E82F6B019A018430D0F58091840120
:100E100090918501A0918601B0918701F12CE12C80
:100E2000AC01BD0140955095609570954C155D05E0
:100E30006E057F0580F58FEF9FEFDC0180938401C5
:100E400090938501A0938601B0938701A0EDB7E050
:100E50000E945C0D69837A838B839C836C157D056E
:100E60008E059F0568F4F0E0EE0FFF1FE858FE4F77
:100E7000808191818F3F980719F00196918380833B
:100E80000F900F900F900F90DF91CF91FF90EF9008
:100E9000DF90CF9008958C0D9D1DAE1DBF1DCECF50
:100EA000CF93DF9300D000D0CDB7DEB7809184011F
:100EB00090918501A0918601B0918701BC01CD017F
:100EC0000F900F900F900F90DF91CF910895CF93D7
:100ED000DF9300D000D0CDB7DEB769837A838B83F0
:100EE0009C838091800190918101A0918201B091B9
:100EF000830129813A814B815C81281B390B4A0B84
:100F00005B0BCA01B9010F900F900F900F90DF910A
:100F1000CF910895843048F4E82FF0E0EE0FFF1FE2
:100F2000E858FE4F80819181089590E080E0089517
:100F30002F932FB72F938F939F93EF93FF939091BE
:100F4000C600E091CC0181E08E0F8F712091CB0122
:100F5000281771F0F0E0E353FE4F90838093CC01AB
:100F6000FF91EF919F918F912F912FBF2F91189506
:100F70008091CA018F3FA1F38091CA018F5F809356
:100F8000CA01EECF8F938FB78F939F93EF93FF9309
:100F90008091880190918901981791F0E82FF0E0F5
:100FA000E657FE4F90819093C6008F5F8F738093BA
:100FB0008801FF91EF919F918F918FBF8F9118952D
:100FC0008091C1008F7D8093C100F3CF1092CC013E
:100FD0001092CB011092CA011092890110928801DF
:100FE0001092C50087E68093C4001092C00088E983
:100FF0008093C10086E08093C20008959091C00064
:1010000095FFFCCF8093C6000895CF93DF93EC014A
:101010008991811103C0DF91CF9108950E94FE074D
:10102000F7CF9C01662311F1892B11F18091890181
:1010300090918801482F491B942F90959F73961784
:10104000B8F0422FF901A82FB0E09191A657BE4FFA
:101050009C938F5F8F739E2F941B9617A0F38093A2
:1010600089018091C10080628093C10081E0089570
:1010700080E00895FC01892BA1F09091CC01809132
:10108000CB01981771F08091CB01A82FB0E0A3534A
:10109000BE4F9C9190838F5F8F718093CB0181E0D5
:1010A000089580E008958091CA01089580912102F9
:1010B000089581E090911E02911101C080E0089591
:1010C0009FB7F894A89584B7877F84BFE0E6F0E0E7
:1010D00088E180838EE480839FBF0895A89508955A
:1010E0008F9385EA809320028AE580931F028F9177
:1010F0001895009799F0482FFC0180E027E09E2F7B
:10110000941B961708F008959191892798E0382F3D
:10111000880F37FD82279150D1F7F1CF80E00895F5
:1011200010921D0210921C02E1E1F2E01082118285
:101130001282109205021092000210920102109287
:101140000202109203020895E6E0F2E091E9908332
:10115000818381E082836383809304020895CF9327
:10116000DF93CDB7DEB72C970FB6F894DEBF0FBE76
:10117000CDBFFC01892B11F162816930F8F481E067
:10118000898380818A8381818B836C833396DE019E
:10119000159680E068130EC06C5FCE0101960E9428
:1011A00079082C960FB6F894DEBF0FBECDBFDF9145
:1011B000CF91089591919D938F5FECCF80E0F1CF17
:1011C0000F931F93CF93DF93CDB7DEB72E970FB654
:1011D000F894DEBF0FBECDBF8C010E94AF0895EA28
:1011E000998391E09A83F80190819B8391819C83FC
:1011F00062816D833396DE01169690E09D0169133E
:1012000014C0F901E60FF11D80836A5FCE010196DB
:101210000E9411082E960FB6F894DEBF0FBECDBF08
:10122000DF91CF911F910F91089541914D939F5F51
:10123000E6CF0E949008E6E0F2E01082118212826E
:10124000109204021092FF011092FE011092FD0113
:101250001092FC011092FB011092FA011092F90118
:101260001092F8011092F7011092F6011092F50118
:101270001092F4011092F3011092F2011092F10118
:101280001092F0011092EF011092EE011092ED0118
:101290000895FF920F931F93CF93DF93C82FF42EDF
:1012A000052F162FD72FE0911C02F0911D023097C9
:1012B00081F0409300025093010260930202709308
:1012C00003023197E630F10500F5E359F24F0C9433
:1012D000560D853A81F40E94900881E090E0909349
:1012E0001D0280931C02F0920002009301021093F1
:1012F0000202D0930302DF91CF911F910F91FF90D3
:10130000089582E090E0C13059F0DF91CF911F91B4
:101310000F91FF900C9490088093110283E090E06D
:1013200090931D0280931C02E6CF8093120284E00A
:1013300090E0F6CF8093130210920502893028F7CF
:1013400085E090E0C111ECCF86E090E0E9CF90918C
:101350001302809105028917C0F68830B0F6E82F95
:10136000F0E0EF5EFD4FC3838F5F8093050298131B
:10137000C2CFEACF81E192E00E94AF088C13DAC0BD
:10138000909111029330D1F48091130281110CC01D
:101390008091FD018111B9CF809112028093FC01EF
:1013A00081E08093FD01B1CF809104028111ADCF26
:1013B00062E0809112020E94A408A7CF943081F4C9
:1013C000809113028111F0CF8091FB0181119DCF9B
:1013D000809112028093FA0181E08093FB0195CF06
:1013E000953081F4809113028111DECF8091F90153
:1013F00081118BCF809112028093F80181E080935C
:10140000F90183CF963081F4809113028111CCCF02
:101410008091F701811179CF809112028093F601BA
:1014200081E08093F70171CF973081F480911302AE
:101430008111BACF8091F501811167CF809112029D
:101440008093F40181E08093F5015FCF983081F4BF
:10145000809113028111A8CF8091F301811155CFA2
:10146000809112028093F20181E08093F3014DCFCD
:10147000993081F480911302811196CF8091F1010E
:10148000811143CF809112028093F00181E080931B
:10149000F1013BCF9B3081F480911302811184CF05
:1014A0008091EF01811131CF809112028093EE0182
:1014B00081E08093EF0129CF9A3041F480911302AB
:1014C000811172CF81E08093ED011FCF2091040242
:1014D00021111BCF80911202913071F420911302DF
:1014E000211110C021E82093060280930702109278
:1014F00008029093040209CF9230D1F49091130224
:10150000911102C062E057CF30E930930602809318
:10151000070290930802A4E1B2E0E9E0F2E08D91C5
:1015200081932F5F9213FBCF81E080930402EDCE75
:1015300061E041CF8091FE018F3F09F4E6CE8F5FDD
:101540008093FE01E2CE462F572FBC0180911C02F2
:1015500090911D02892BD1F080910002909101029F
:10156000A0910202B0910302481B590B6A0B7B0B3E
:10157000443651056105710548F00E94900880913C
:10158000FF018F3F19F08F5F8093FF0108958091D5
:10159000FF0108958091FE0108958091040208954D
:1015A000FC01892BD9F0809104028823C1F080913D
:1015B00006028083809107028183809108028283E2
:1015C00090910802A9E0B2E0339680E0981302C03F
:1015D00081E008952D9121938F5FF8CF80E00895E9
:1015E000109204020895FC01892B31F08281893028
:1015F00018F4CF010C94E00880E00895FC01892BD9
:1016000049F08091FD01882331F08091FC018083B5
:1016100081E0089580E00895CF93DF93CDB7DEB7E2
:101620002B970FB6F894DEBF0FBECDBF93E899831A
:101630008A8383E08B836C834D832E83CE01019656
:101640000E94E008882319F01092FD0181E02B969A
:101650000FB6F894DEBF0FBECDBFDF91CF910895D6
:10166000FC01892B49F08091FB01882331F08091A6
:10167000FA01808381E0089580E008950F931F931D
:10168000CF93DF93CDB7DEB72B970FB6F894DEBFBD
:101690000FBECDBF94E899838A8388E08B837D83D6
:1016A0006C835F834E83398728871B870A87CE0127
:1016B00001960E94E008882319F01092FB0181E056
:1016C0002B960FB6F894DEBF0FBECDBFDF91CF9142
:1016D0001F910F910895FC01892B49F08091F90128
:1016E000882331F08091F801808381E0089580E0C3
:1016F00008950F931F93CF93DF93CDB7DEB72B974A
:101700000FB6F894DEBF0FBECDBF95E899838A83EC
:1017100088E08B837D836C835F834E833987288742
:101720001B870A87CE0101960E94E008882319F0E2
:101730001092F90181E02B960FB6F894DEBF0FBE30
:10174000CDBFDF91CF911F910F910895FC01892B9F
:1017500049F08091F701882331F08091F601808370
:1017600081E0089580E00895CF93DF93CDB7DEB791
:101770002B970FB6F894DEBF0FBECDBF96E89983C6
:101780008A8386E08B837D836C835F834E83398776
:101790002887CE0101960E94E008882319F0109254
:1017A000F70181E02B960FB6F894DEBF0FBECDBFD8
:1017B000DF91CF910895FC01892B49F08091F501CB
:1017C000882331F08091F401808381E0089580E0E6
:1017D00008950F931F93CF93DF93CDB7DEB72B9769
:1017E0000FB6F894DEBF0FBECDBF97E899838A830A
:1017F00088E08B834C835D836E837F8308871987A2
:101800002A873B87CE0101960E94E008882319F0C1
:101810001092F50181E02B960FB6F894DEBF0FBE53
:10182000CDBFDF91CF911F910F910895FC01892BBE
:1018300049F08091F301882331F08091F201808397
:1018400081E0089580E008950F931F93CF93DF9375
:10185000CDB7DEB72B970FB6F894DEBF0FBECDBF66
:1018600098E899838A8388E08B837D836C835F8388
:101870004E83398728871B870A87CE0101960E94ED
:10188000E008882319F01092F30181E02B960FB63F
:10189000F894DEBF0FBECDBFDF91CF911F910F91A6
:1018A0000895FC01892B49F08091F101882331F0E2
:1018B0008091F001808381E0089580E00895CF93C6
:1018C000DF93CDB7DEB72B970FB6F894DEBF0FBE10
:1018D000CDBF99E899838A8381E08B836C83CE01A5
:1018E00001960E94E008882319F01092F10181E02E
:1018F0002B960FB6F894DEBF0FBECDBFDF91CF9110
:1019000008958091ED010895FC01892B49F08091A3
:10191000EF01882331F08091EE01808381E008950A
:1019200080E00895CF93DF93CDB7DEB72B970FB646
:10193000F894DEBF0FBECDBF9BE899838A8381E018
:101940008B83611101C080E08C83CE0101960E94DF
:10195000F30A882319F01092EF0181E02B960FB65D
:10196000F894DEBF0FBECDBFDF91CF910895259AC9
:101970002D9852985A9A0E94CF040E9448050E94BE
:1019800050050E94CF030E9428040E9413050E9464
:10199000E6070E940E030E9454030E94CA040E949C
:1019A00045050E944E0581E00E942E050E947300AD
:1019B0000E9453050E948D050E94B8050E941909D6
:1019C00090E080E00E94580541E050E060E070E067
:1019D0008DEE91E00E946703182F4AE050E060E02E
:1019E00070E085E492E00E946703D82F4EE150E05A
:1019F00060E070E083E991E00E946703C82F4AE04D
:101A000050E060E070E080E890E00E9467031123FE
:101A100031F0DD2321F0CC2311F0811103C00E94AD
:101A20007500FFCF0E947B060E942F030E94DC06F8
:101A30000E94600878940E949A030E946E08FBCF6F
:101A4000AA1BBB1B51E107C0AA1FBB1FA617B707E4
:101A500010F0A61BB70B881F991F5A95A9F7809500
:101A60009095BC01CD010895A1E21A2EAA1BBB1BC3
:101A7000FD010DC0AA1FBB1FEE1FFF1FA217B3075A
:101A8000E407F50720F0A21BB30BE40BF50B661F70
:101A9000771F881F991F1A9469F760957095809534
:101AA00090959B01AC01BD01CF010895EE0FFF1F82
:101AB0000590F491E02D0994A29FB001B39FC0015D
:101AC000A39F700D811D1124911DB29F700D811D6A
:101AD0001124911D0895F894FFCF81098C0995096F
:061AE0009A09A709BA09EA
:0A1AE600010101030206040C0800D0
:00000001FF
